:020000040800F2
:1000000000180020E53F0008654000086540000832
:1000100000000000000000000000000000000000E0
:100020000000000000000000000000006540000823
:100030000000000000000000654000082F390008A3
:100040006540000865400008E13A00086540000886
:1000500065400008513E0008613E0008713E0008FE
:1000600065400008654000086540000865400008DC
:10007000654000083D430008554300085D43000803
:100080007543000800000000000000008D430008D8
:1000900000000000A5430008BD4300085D160008ED
:1000A0000000000065400008654000086540000849
:1000B0006540000800000000654000086540000839
:1000C00002B4714649084900095C49008E4402BCEB
:1000D0007047C046002243088B4274D303098B4209
:1000E0005FD3030A8B4244D3030B8B4228D3030C08
:1000F0008B420DD3FF22090212BA030C8B4202D3AA
:100100001212090265D0030B8B4219D300E0090AD1
:10011000C30B8B4201D3CB03C01A5241830B8B42DA
:1001200001D38B03C01A5241430B8B4201D34B03C3
:10013000C01A5241030B8B4201D30B03C01A524128
:10014000C30A8B4201D3CB02C01A5241830A8B42AD
:1001500001D38B02C01A5241430A8B4201D34B0296
:10016000C01A5241030A8B4201D30B02C01A5241FA
:10017000CDD2C3098B4201D3CB01C01A52418309AE
:100180008B4201D38B01C01A524143098B4201D3E8
:100190004B01C01A524103098B4201D30B01C01A13
:1001A0005241C3088B4201D3CB00C01A524183088D
:1001B0008B4201D38B00C01A524143088B4201D3BA
:1001C0004B00C01A5241411A00D20146524110461A
:1001D0007047FFE701B5002000F006F802BDC046F9
:1001E0000029F7D076E770477047C04610B5064C37
:1001F0002378002B07D1054B002B02D0044800E0E8
:1002000000BF0123237010BD840000200000000007
:1002100030470008044B10B5002B03D003490448B5
:1002200000E000BF10BDC0460000000088000020B4
:100230003047000841600272002B01D1437205E093
:10024000012BFBD0022BF9D0032BF7D0704710B550
:1002500013000A00232100F051FB10BD00B589B046
:1002600004A801F0B1FA6A466B46117DDB7C4A1C9A
:100270003B2903D1172B13D0002201330021DBB21D
:1002800002910093FA210123D2B20192C9001A000F
:1002900006A801F0EFF906A801F0B6FA09B000BD12
:1002A00000221300EAE700B589B004A801F08CFA37
:1002B0006A466B46117DDB7C4A1E002903D1002B68
:1002C00013D03B22013B0021DBB202910093FA21C3
:1002D0000123D2B20192C9001A0006A801F0CAF99E
:1002E00006A801F091FA09B000BD3B221723EAE706
:1002F00070B50400054D81B201222800FFF7A7FF69
:1003000028000122210CFFF7A2FF70BDB4000020DD
:10031000F7B50E0001240A21050030000192FFF715
:10032000D9FE27002B4B0A211B5C30009F40FFF7B2
:1003300057FF2000284B5B5C9840019B0743002B34
:1003400015D00A212800FFF7C5FE2600234B0A21FD
:100350001B5C28009E40FFF743FF2000204B5B5CA6
:10036000984030433843C043FFF7C2FFF7BD8220B7
:10037000002D2DD0C1200C2D08D0194E1AD90C3DBE
:10038000092D05D8735D9C40802027438001E9E753
:100390000A212800FFF79EFE2200104B0A211B5C59
:1003A00028009A400192FFF71BFF735C9C40019B61
:1003B0001C43E9E7092D03D82000735D9840D1E77D
:1003C0000A212800FFF70CFF735C80209C40274324
:1003D0004001C7E7554700085B4700084847000849
:1003E0004B47000870B50400002501263200274B5A
:1003F0002748EB5C01359A401043C043FFF778FF74
:10040000200003F0C5FE032DF0D1002501263200A7
:10041000204B2148EB5C01359A401043C043FFF765
:1004200067FF200003F0B4FE0A2DF0D1002501265D
:1004300032001A4B1A48EB5C01359A401043C04316
:10044000FFF756FF200003F0A3FE062DF0D1002594
:1004500001263200134B1448EB5C01359A401043DF
:10046000C043FFF745FF200003F092FE0A2DF0D1B4
:100470000E48FFF73DFF200003F08AFE0C48FFF70F
:1004800037FF200003F084FE70BDC04648470008D7
:10049000000104204B4700080008042055470008CD
:1004A000000900205B47000800090400FFD6FBDFBD
:1004B000FFF6F3DFF0B587B003F066FE0190182079
:1004C00003F03EFE4242424104001720029203F034
:1004D00037FE4242424105002F4E0392002C56D176
:1004E0003368002B0CD02D4A2D4913688B421FD93D
:1004F000FA2312685B009A4207D3FFF7AFFE04E0CD
:10050000FFF7ACFE3368002BEDD1264F264C002DB3
:100510003AD13B68002B0ED02368214A934230D950
:10052000FA2322685B009A420AD3FFF7BCFE07E079
:1005300014331360DCE7FFF7B6FE3B68002BEBD10A
:10054000FA232268DB009A4206D3144A12689A42C0
:1005500002D3FA20FFF746FF04A801F035F904ABF7
:100560001979D8780022FFF7D3FE029B3360039BF2
:100570003B6003F009FE019B14339842F9D307B0A6
:10058000F0BD14332360CBE700232360E4E70022AF
:10059000024B1A60B9E7C046A4000020A800002062
:1005A000C4090000AC000020B000002070B501219B
:1005B0000400FA26122003F09FFDB6000025A54294
:1005C0000FD00021122003F097FD4B2003F0E0FD37
:1005D0000121122003F090FD4B2003F0D9FD0135DD
:1005E000EDE7300003F0D4FDE8E7000070B501212D
:1005F000AEB0112003F080FD0121112003F034FD85
:100600000121062003F078FD0121042003F074FD90
:100610000121062003F028FD0121042003F024FD20
:100620000221182003F020FD0221172003F01CFDF9
:100630000121122003F060FD0121122003F014FDBE
:10064000FF2305AE0522042130000093F93B00F0A2
:10065000ADF82E4CA4223100200003F053FF2321DB
:10066000200000F0EBF8002302AD1A002849280012
:10067000FFF7E0FD2B0007CB07C6AB68059A009398
:100680006B682321200000F004F90021122003F000
:1006900033FD03F079FD01221E4905002000FFF71C
:1006A000D6FD1C4901222000FFF7D1FD00211120B9
:1006B00003F022FD03F068FD401BC7280AD8012281
:1006C00020001449FFF7C3FD012220001149FFF764
:1006D000BEFDEFE70121122003F00EFD0E480F4B87
:1006E0000200D98F7832118002009B8F7A3200216C
:1006F000138000F0E7FB0A4800F0E8FF002802D171
:100700000130FFF753FF2EB070BDC046B40000208B
:1007100040420F00FFFF000058010020504D00082C
:10072000A0000020F0B504000420232916D80023DF
:100730000C252E005E43A65FD8B2B1420ED0013325
:10074000042BF6D11800012A08D100230C252A0019
:100750005A43A65ED8B2013601D11153F0BD013320
:10076000042BF4D11800F9E70100012270B5030051
:10077000012500240B4E303152421A805E601D72FA
:100780005C720C338B42F8D10100074B02861C8B44
:100790009C310C80DC8A4C805B8B8B800300A23305
:1007A0001A8070BD00093D00504D0008F0B50026CC
:1007B00005AC07002578B4460400303701267642A0
:1007C00026801C4E666001262672664666720C34D0
:1007D000A742F3D1012464420486222A1ED8164C73
:1007E0005200125F04009C342280222919D8124A38
:1007F00049008A5E01009E310A80222B14D80E4ADD
:100800005B009B5E0200A0321380222D0FD80A4BA2
:100810006D00EB5E0200A2321380F0BD0122524255
:10082000E0E701225242E5E701235B42EAE70123C8
:100830005B42EFE700093D00504D000870B5040031
:100840000D00232924D80122FFF76CFF060003289E
:100850001ED8232D0DD02300A23300229B5E01332E
:1008600007D10121280003F0FFFB0121280003F03C
:1008700043FC0C21230000222000714391331A70A5
:1008800061180B7A4A7A3430496800F0A9F8258655
:1008900070BD82B0F8B504000D00069207932329BD
:1008A00028D80122FFF73EFF0700032822D80C2694
:1008B0004643079BA619736006AB1B893381232D22
:1008C0000DD02300A23300229B5E013307D101210A
:1008D000280003F0C9FB0121280003F00DFC0C20C7
:1008E00078432018037A427A20007168343000F08F
:1008F00077F82586F8BC08BC02B01847F0B589B077
:100900001626049302ABDA810022F61804000D00CB
:100910003280232905D8FFF705FF0700032803D9F4
:100920003288100009B0F0BD230034330393302225
:10093000A35E9D4209D00C21414361180B7A4A7A8B
:100940000398496800F04CF825860C237B43E31894
:100950001B7A002B07D00E2202ABD2181388190A7B
:100960001B020B431380232D09D02300A233002246
:100970009B5E013303D10021280003F0BDFB162646
:1009800002ABF618FA230E219B0002A80093091867
:1009900002233200039800F03DF9232D0CD0049B74
:1009A000012B09D12300A23300229B5E013303D126
:1009B0002800049903F0A0FB0C2078432418237A24
:1009C000002BADD033881A0A1B0213433380A7E7EC
:1009D00010B50248FFF7C8FE10BDC046B4000020A5
:1009E000F0B589B004000F0001920593002800D1F2
:1009F000C8E003006A3302930020185E7B4903F0CD
:100A00004BF82300009068330020185E784903F00B
:100A100043F823006C33774906000020185E03F08A
:100A20003BF823006E330393050073490020185EE2
:100A300003F032F8009B0490002B00D1A2E0002EBE
:100A400000D19FE0002D00D19CE03100180003F0A0
:100A50002CF804990600280003F027F8010005008F
:100A6000300003F022F86066002E00D18AE0002DED
:100A700000D187E0002800D184E0039B00229B5E28
:100A8000206001335A1E93415C4A5B42134080222E
:100A900092009B18A36182235B00636002F022FB3B
:100AA0004308BB4200D96FE00023E3610223019AAF
:100AB00000259A4313005A1E934101226361019B52
:100AC000A5609A4292410723E362E023DB00E360E2
:100AD0005242059B520022615A425341DB0123627C
:100AE000029BA562656265630020185E3F4902F0C3
:100AF000B1FF2300260068330020185E3C496C36A5
:100B000002F0A8FF0023F05E3A4902F0A3FF21693A
:100B10000C204B4259410022B35E01311A090242B6
:100B200004D1033002403648920015580F2213407A
:100B3000344A9B009B5803225B435A43D243022909
:100B400042D0E9680A401343EB6023006E33002073
:100B5000185E294902F07EFF23682B4A934237D161
:100B600080202A4A400191690143916193690340C1
:100B70000693069B200002F0FFFB402322681168C9
:100B80000B43136009B0F0BD8308BB4201D80823B2
:100B90008BE7C308BB4201D8102386E70309BB4299
:100BA00001D8182381E74309BB4201D820237CE701
:100BB0008309BB4201D8282377E73023C009B84214
:100BC00000D872E7382370E7E9685B000A40BAE7AB
:100BD0000F4A9342CED180200C4AC001D169014313
:100BE000D161D36903400793079BC3E7444C0008D6
:100BF000144C0008744C0008B04C000800FE0300C0
:100C00000C00002040490008003001400010024064
:100C10000038004013B5002809D0002B07D0049CF1
:100C2000009402F007FC032803D0002800D0022023
:100C300016BD0120FCE7837D407D181A7047427D78
:100C4000817D0300914204D90169885C01325A75A3
:100C5000704701204042FBE7437D827D9A4202D9E2
:100C60000269D05C704701204042FBE7036D10B57C
:100C70001A00B0321268002A03D000215977997700
:100C8000904710BD70B505000C00202900D220242B
:100C90002100A86903F0F0FC002802D0A8612C779D
:100CA00070BD2100014802F023FFF9E76547000805
:100CB00013B56B46D971C37F0400002B17D0817F19
:100CC000037F0131994201D9FFF7DCFFA0690028B9
:100CD00002D10123636016BD6B46DA79637FC2548B
:100CE000637F01200133DBB26377A377F3E76B46C1
:100CF0000122D91D243000F08FFB43425841EAE71E
:100D000070B5C37F04000E001500002B1AD0817F40
:100D1000037F8918994201D9FFF7B4FFA069002821
:100D200004D1012305006360280070BD637F2A00A1
:100D3000C018310003F0E6FB637F5B19DBB2637719
:100D4000A377F1E792B2243000F066FB43425841AA
:100D500040420540E8E7000000234360FA23020018
:100D60009B008360044B783208330360034B998BFC
:100D70001180DB8B53807047D8470008504D000826
:100D80000023437701334900FF33C175C3837047A4
:100D90000023437701334900FF33C175C383704794
:100DA00070B5037D05000C008B420AD2202900D2C9
:100DB00020242100286903F05FFC002802D028616C
:100DC0002C7570BD2100024802F092FEF9E7C04682
:100DD00065470008F8B5046D05002700B4373B6887
:100DE000C66D002B1BD0627DA37D9A4217D33100C4
:100DF0002000FFF7D5FF2369002B04D1CF2108483D
:100E0000490002F075FE290032002069683103F0C4
:100E100079FB0023A675637530003B689847F8BDE1
:100E20007D4700080300006910B5002803D00021A9
:100E30001A7D03F070FB10BD0300806910B5002817
:100E400003D000211A7F03F066FB10BDF8B5002522
:100E50000400457585750E001700FFF7E3FF2000BD
:100E60006577A577FFF7E8FF2300B0332561257587
:100E7000E575A561257764671D60E577730025003A
:100E8000333E71424E41DBB2621CD377AE35AE3297
:100E900024342E70200017700749012200F02EFA2A
:100EA0002B78002B07D12000044900F06CFB2000B8
:100EB000034900F05EFBF8BDA08601006D0C000840
:100EC000D50D000810B50A003321FFF7BFFF10BD94
:100ED00070B5AA230400002919D163652300AE333D
:100EE0001B780425012B10D12000A37FE17DA2698E
:100EF000243000F0FEFA032800D9280045B2200073
:100F0000FFF79AFF00236377E383E8B270BD1B020B
:100F1000E3E7F0B585B002930AAB1E780BAB1B7804
:100F2000019103930300AE331F7804001500012FD5
:100F300006D11100FFF734FF2369002B02D167604F
:100F4000002533E0019B5F00FFB2002E1BD0002381
:100F500063770133FF33E383E775331C032E00D936
:100F60000323DEB2013EF6B2FF2E08D00299F30051
:100F7000D940236820001B68C9B29847F2E70021D6
:100F80002000FFF7A5FF039B002B12D1AA332000FE
:100F900063653900ABB22269243000F051FA434254
:100FA00058410023404205406375A575280005B0EF
:100FB000F0BDAA231B02EAE707B5019300230093C3
:100FC000FFF7A7FF0EBD10B50123FFF7F5FF10BD1A
:100FD00010B50123D2B2C9B2FFF7EEFF10BD10B5B4
:100FE0000121FFF775FF10BD70B5002504004575A0
:100FF0008575FFF717FF6577A5772000FFF71CFFC2
:1010000070BD000010B50248FFF7A6FE10BDC04637
:1010100058010020F0B5A7B01091109A9749D2005E
:1010200003005058984205D1881840680190002864
:1010300000D01FE11C26924F58088B50C019190090
:10104000FFF748F8109B8F4D5E4373590400580812
:101050001900C019FFF73EF8AD192B8BA989119320
:10106000119A09908918A87EEA8AC31C0A920A9FDD
:101070006343EA893239D21B053AC91AFF3AE318A9
:10108000D31A2A8A6043D2191892CA43D217114040
:10109000DA43D217134019911290696878481A936D
:1010A000FFF718F8A9681B907548FFF713F8129A14
:1010B00063003233D218159262420892159AE318EF
:1010C00094460F93099BA444139310236246002770
:1010D0001493113B1C9000920C9701932496259534
:1010E0000A99FBB28C46159A1793009B9B1A3A07F4
:1010F0002292119A0B93624416921699099A511AE8
:10110000009A52008A1A219200220392189A0B998F
:101110008A4200D992E02299039A0A4300211E9242
:101120000291199A8A4200D981E01A9A8A4200D221
:101130007DE0149A1798824279D00C9A01320C9271
:10114000072A00D996E0259A1E98528A1D92029A83
:10115000120410431F90169A009812180D920F9ABD
:1011600024980492219A0E9200220792454A12185E
:1011700023920498129A12181D98904244D2049A0D
:10118000323A920894423FD21F98079A0243209223
:1011900000980D9A059012180E988446002006902B
:1011A0001C9890421FD81B9890421CD32398059DF1
:1011B000808AA84217D8AC4215D20998161A00D5D1
:1011C0006646139886420ED20698209D000205437B
:1011D00010980195C0000500284813964019019DFC
:1011E0004560179814900698089D01300690604657
:1011F000AC46604484460598069DC0180590802042
:10120000D21840008542CBD10898079A8446013213
:1012100007920E9A079862440E920D9AD2180D9278
:10122000049AD2180492802252009042A1D1029ACC
:10123000C91801320292102A00D072E780214903B6
:101240008C460B9AD2180B92039A62440392802226
:1012500003995204914200D058E7089B01371B1BA9
:101260000893009B1B1900930F9B1B190F93102FC2
:1012700000D035E7019827B0F0BDC046100200202D
:1012800000CA9A3B60480008064A0023904205D1F4
:10129000054B1B6BDB0603D5044B1B68180070471E
:1012A000034BFBE700540040001002401C000020EC
:1012B00000127A000E4A030010B5914212D90D4A6D
:1012C000914206D80068FFF7DFFF0121FFF7A2FE79
:1012D00010BD094A00209142FAD81868FFF7D4FFE0
:1012E0000221F3E70068FFF7CFFF0021EEE7C046D9
:1012F000A0860100801A060040420F00F0B587B0BA
:10130000041E01910292039374D006003A4F5436A2
:1013100039000023F05E02F0BFFB2300563337494B
:1013200005000020185E02F0B7FB0100002D61D01F
:1013300000285FD0280002F0B8FB2060002859D0B8
:101340002F4B251D984216D180222E4B9203D9692E
:101350001143D961D96911400591059919690A4369
:101360001A611A6928490A401A6123001722583362
:101370001A70264B1D60230056330020185E1F494B
:1013800002F068FB0023F05E390002F063FB236883
:10139000019963602000FFF78DFF039B0022E3604B
:1013A000FF23A361029BA0602361230062618B3352
:1013B0001B782600591E8B41DB042362230000208A
:1013C0004533626258361A700221305600F0E8FA4E
:1013D0000020305600F00EFB280000F017FC00281B
:1013E00003D00B490B4802F083FB0023E3658934EB
:1013F0000233237007B0F0BD104A0008B04900085E
:101400000054004000100240FFFFDFFF28020020D0
:10141000D502000000480008030030B50120202A52
:1014200007D8002084B2A24204D80020D2B2883368
:101430001A7030BD0D5C1C18683425700130F1E75E
:10144000F0B5040085B00D001F00160000F0A2FAF0
:10145000236B04340390A9B2009332003B002000B8
:1014600000F024FD051E0BD0002005B0F0BD00F0FB
:1014700091FA039BC51A200001F013FB002806D146
:10148000200001F00AFB202801D0632DEFD92000B5
:1014900001F007FB03000520632DE6D89A06E4D48B
:1014A000042202381342E0D1002BDDD01000DCE72B
:1014B00010B564230400043000F0FEFB02280BD0BA
:1014C000032802D000280DD110BD45342378022016
:1014D000202BF9D00330F7E745342378202BF3D0C5
:1014E0000620F1E7453423780220202BECD00018A9
:1014F000EAE7F0B585B004000D0017001E0000F00B
:1015000049FA0390002E06D1012229002000FFF79E
:10151000CFFF05B0F0BD236B0434A9B200933A00AD
:101520003300200000F06CFC051E0AD00020F0E71C
:1015300000F030FA039BC51A200001F0B2FA00282F
:1015400006D1200001F0A9FA202801D0632DEFD99F
:10155000200001F0A6FA03000520632DD9D89A06D1
:10156000D7D4042202381342D3D1002BDED010008E
:10157000CFE710B5002805D0002903D0016604305C
:1015800000F0BEFD10BD10B5002805D0002903D025
:101590004166043000F0B4FD10BD836810B504004E
:1015A0009A4214D1230000220438853301290FD137
:1015B0001A70436E934200D0984723008433210071
:1015C0001A788023200064319B0400F0C5FC10BD14
:1015D000C26501221A708023C16D5B046831411815
:1015E000200000F021FDF2E770B506008536337863
:1015F0000400051F012B05D1EB6D002B02D0280044
:101600002B6E98470223337000232000EB6500F017
:1016100077FD70BD836D011F10B51F2B02DCCB6DF4
:101620000133CB65030085331B78DAB2012B06D179
:10163000CB6D6833C91880235B0400F0F5FC10BD46
:101640000023843003707047030010B586331B7885
:10165000002B01D100F054FD10BD0000044B10B56B
:101660001C68200000F060FD200001F0D1F910BDE1
:1016700028020020F0B5FA2705AC267806AC2578BC
:1016800007AC2478FF00B94202D3054FC91989B2CB
:10169000C67005710170427083704471F0BDC04620
:1016A00030F8FFFF10B5084C00212000FFF70AFCBE
:1016B00068212000FFF76CFB2000FFF790FC4342FD
:1016C0005841C0B210BDC0465801002010B5FFF708
:1016D000E9FF10BD70B506000D00084C6821200020
:1016E000FFF74EFB31002000FFF7E2FA290020004F
:1016F000FFF7DEFA2000FFF772FC70BD58010020F2
:10170000F0B5304C87B0060068212000FFF740FBA1
:1017100000212000FFF7CCFA2000FFF760FC072231
:1017200068212000FFF754FC2000FFF788FA7F2390
:10173000062518406D4203116B43C018C3B2200048
:101740000593FFF77CFA0F27030000113840684328
:10175000C018C3B220000493FFF771FA0300001110
:1017600038406843C018C3B220000393FFF767FAFC
:101770002000FFF764FA0300001138406843C018E6
:10178000C3B220000293FFF75AFA03000011384059
:101790006843C018C3B220000193FFF750FA031149
:1017A0001F407D432D183000019B35707370029BE4
:1017B000B370039BF370049B3371059B737107B087
:1017C000F0BDC0465801002010B50400FFF798FF97
:1017D000200010BD70B505000A4C68212000FFF7FD
:1017E000CFFA29002000FFF763FA2000FFF7F7FB8C
:1017F000012268212000FFF7E6FB2000FFF71FFA17
:10180000C0B270BD58010020F8B50600304C682108
:101810002000FFF7BDFA00212000FFF749FA777991
:101820000A213800FEF756FC0625010069437918A5
:101830002000C9B2FFF73CFA37790A213800FEF7D9
:1018400049FC0100694379182000C9B2FFF730FA5A
:10185000F7780A213800FEF73DFC0100694379184A
:101860002000C9B2FFF724FA00212000FFF720FA78
:10187000B7780A213800FEF72DFC0100694379187A
:101880002000C9B2FFF714FA77780A213800FEF772
:1018900021FC0100694379182000C9B2FFF708FA5A
:1018A00036780A213000FEF715FC45437519E9B278
:1018B0002000FFF7FDF92000FFF791FB0F20FFF755
:1018C00089FF7F2101400F20FFF704FFF8BDC046CC
:1018D0005801002003000A4910B50868C318EFF347
:1018E0000882934205D90C220120064B40421A601F
:1018F00010BD054A054C121B9342F4D20B60F7E76A
:1019000000000020C8030020001800200004000090
:101910007047000070B50500FA200D4B8000197863
:10192000FEF7D8FB0B4B01001868FEF7D3FB00F065
:101930006DF804000120002C09D1032D07D80238CE
:101940002200290000F02CF82000034B1D6070BD20
:10195000040000201C000020080000201023064A7C
:1019600010B5116800200B431360FFF7D3FFFFF79A
:10197000CFFF002010BDC04600200240034A044BA8
:1019800011681B785B1813607047C046C4030020C1
:1019900004000020014B18687047C046C4030020B3
:1019A00030B5FF2503242A000440E400A240890149
:1019B0002940D243A140C3B200280ADBC0240B4B0C
:1019C00080088000C018A40003591A401143015137
:1019D00030BD0F200340083B05489B089B001B18A7
:1019E000D86902401143D961F2E7C04600E100E046
:1019F00000ED00E0002805DB1F2318401E3B83405C
:101A0000014A13607047C04600E100E08022431E97
:101A10005204012093420DD2C021074A0748536067
:101A2000036A09061B021B0A0B43036200200723FB
:101A3000906013607047C04610E000E000ED00E0E9
:101A4000704710B5FFF7FCFF10BD70B5841CE37F35
:101A5000022B04D004238363033B180070BD0E21C6
:101A60000368056C1A688A431A6001221968914359
:101A700019601100A940C36B5960E27700248318F4
:101A8000DC77426B1300A242E7D090472300E4E7E3
:101A9000044B10B55A69104202D0586102F0C2F9E5
:101AA00010BDC0460004014003689A69920701D541
:101AB00000229A6201229969114202D199690A436E
:101AC0009A61704730B5039C1204006822431A43A0
:101AD000054B45688905640D890D1C43A5430A43E0
:101AE0002A43426030BDC046FF63FF03042210B5A5
:101AF000436B174C0A40A34202D0164CA34214D1A8
:101B000000239A4200D0B83311220A40112A01D191
:101B10007F32134312221140914201D14E321343BE
:101B200001680A6813430B6010BD00239A4200D07D
:101B3000B833CA0701D5F22213438A0701D5F4222C
:101B4000EDE7122211409142EAD10E32E7E7C0469A
:101B5000F1280008E5270008002310B5CA0708D5BA
:101B6000030041331A7828231A401A33282A00D058
:101B7000B0338A0708D50200282441321278224067
:101B8000A2420AD1442213434A0701D5B822134383
:101B900001680A689A430A6010BDF422F3E7C36A39
:101BA000AA2B02D10023C3627047AA23C26A1B0278
:101BB0009A42F9D180239B04F5E7F8B504000E00A2
:101BC00017001D002268936933409B1B59424B410B
:101BD000BB4201D0002017E06B1CF4D0FFF7DAFE07
:101BE000069BC01AA84201D8002DEBD12022636CBD
:101BF000012013436364230041331A702200002341
:101C00004232403413702370F8BD704770B5040041
:101C10000120002C3FD0250041352B78DAB2002B73
:101C200005D12300403320001A70FFF7EEFF242374
:101C300001212B702368E0681A68A6688A431A603D
:101C400061681A4A0A401A619968194A11409960F4
:101C5000012821D180210902314399605868154932
:101C600001435960D96800200A40DA60616922693D
:101C70000A43A16909020A43DA60216AE2690A4358
:101C80001A60012219680A431A60202360642B70CD
:101C900020634234207070BD842109023143996071
:101CA0000228DBD1802109015960D7E7FFFFFFF04F
:101CB000FF7FFFFF00800002F0B589B005921E0093
:101CC0000200002341320793137804000225202BE1
:101CD0005CD103689869802307001B021F401842EB
:101CE00054D1200040300378012B4FD001230370E2
:101CF0002420890510708A0D676404920393E368B9
:101D0000012B2BD13D4B049A134322685360FFF7FC
:101D100041FE02902368039A9D699B696D091B0926
:101D2000154013401D431CD0236810279B691A00DF
:101D30003A403B422DD1029B2021009320003300EA
:101D4000FFF73BFF002821D1202322680500D36143
:101D50002200403441321370207017E0A0239B0111
:101D6000D1E7731CD6D0FFF715FE029BC01AB04214
:101D700001D8002ECED12200202341321370626C94
:101D8000012513436364002340342370280009B005
:101D9000F0BD029B00220093202133002000FFF7BA
:101DA0000CFF021EF2D123680598DF612027DF6156
:101DB000079981420FD180215868C90101435960B8
:101DC000029B3900009320003300FFF7F6FE002845
:101DD000DCD12368DF61079B059A01330793079BDA
:101DE000934200D28BE72200202341321370626CB1
:101DF00040341343636000232370C7E700200002D0
:101E0000F0B50E00010085B0039341310D78040058
:101E1000170002200A9A202D3DD125004035287850
:101E2000844663460220012B35D0013828702030CB
:101E30000870113848700021039B61646385194B59
:101E4000E2626363638D6762FF2B26D9FF238027DD
:101E500023857F04236B112B06D1AA2A04D0AA2143
:101E6000002309028A4207D12000FFF798FE638D04
:101E7000FE2B00D8E76A0C4B31000026228D200093
:101E8000D2B200933B00FFF71DFE200001212E700F
:101E9000FFF72CFE300005B0F0BD638DE76A2385A7
:101EA000D8E7C046A526000800200080F0B50E0047
:101EB000010085B0039341310D7804001700022022
:101EC0000A9A202D3DD12500403528788446634666
:101ED0000220012B35D001382870213008701238CB
:101EE00048700021039B61646385194BE262636360
:101EF000638D6762FF2B26D9FF23802723857F040C
:101F0000236B122B06D1AA2A04D0AA21002309028E
:101F10008A4207D12000FFF742FE638DFE2B00D8D6
:101F2000E76A0C4B31000026228D2000D2B20093CC
:101F30003B00FFF7C7FD200002212E70FFF7D6FD02
:101F4000300005B0F0BD638DE76A2385D8E7C04651
:101F5000A526000800240080F0B5070085B0029295
:101F600028220191039341373B7804000125134057
:101F7000934208D1002902D0029B002B06D1802376
:101F800001259B006364280005B0F0BD26000521F3
:101F90004036FFF7E1FD3378012B3DD035703B78BB
:101FA0001E4D2A2B16D102212000FFF7D5FD2368F4
:101FB0001A6812040ED51A68E06B2A401A600028CD
:101FC00008D0174B4363FFF740FD002802D0E06BB9
:101FD000436B984729233B702300202242331A7019
:101FE00000232268636451680D4001995560616265
:101FF00002996185618D21850399E16209496163D7
:102000009169C90301D50821D161052120003370F0
:10201000FFF76CFD0025B6E70225B4E7FF7FFFFF61
:10202000732A0008A9240008F0B5070085B00292C1
:1020300028220191039341373B7804000125134086
:10204000934208D1002902D0029B002B06D18023A5
:1020500001259B006364280005B0F0BD2600062121
:102060004036FFF779FD3378012B3ED035703B7851
:10207000292B17D129002000FFF76EFD23681A686D
:1020800052040FD51A681A49A06B0A401A6000283A
:1020900008D0184B4363FFF7D8FC002802D0A06B90
:1020A000436B98472A233B702300202242331A7047
:1020B00000232268636451680F4801405160019910
:1020C000616202996185618D21850399E1620B4905
:1020D00061639169C90301D40821D16106212000FF
:1020E0003370FFF703FD0025B5E70225B3E7C046CF
:1020F000FFBFFFFF732A0008FF7FFFFFA92400082E
:10210000020010B5413211780223202907D126336D
:102110001370044B1C394363FFF7E8FC00231800DD
:1021200010BDC046A9240008036810B599691A6853
:10213000436B002B00D0984710BD704770470300D9
:1021400070B500252022060042331D70013B19782E
:10215000040040361A7021290AD111234563036314
:102160002039FFF7F9FC20003570FFF7E6FF70BD5E
:102170001223456303630221FFF7EEFC2000357054
:10218000FFF7DCFFF3E7030070B5002542331D7055
:10219000013B1A780400292A0DD1013A1A70212333
:1021A00001210363FFF7D8FC2300403320001D709A
:1021B000FFF746FA70BD1A782A2AFBD1023A1A7044
:1021C000222302210363FFF7C7FC230040332000D2
:1021D0001D70FFF71FFAEDE7F7B5FE270168040051
:1021E0008D698E698B68CA68ED030192C268360CEE
:1021F000ED0F3E40022A24D19B059A0D5B0F5E40F5
:102200003000062318401E4210D1A36C0133A36492
:10221000A36C022B09D10633A064CB6123004033A9
:10222000187029002000FFF7B8F9F7BD042120003D
:10223000FFF792FC2300002240331A70019A3A40C3
:10224000EFE70421FFF788FC2300002240331A70D7
:102250003200E6E7184B10B5C362002302000363A7
:102260000400202041321070537063634B0713D574
:102270002368626A5B6A1370636A01336362238D49
:10228000002B09D0013B2385638D013B9BB2638505
:102290000423626C1343636407212000FFF75CFC96
:1022A000102223682000DA612300002240331A70D4
:1022B000FFF79AF910BDC0460000FFFF7047704756
:1022C0007047000070B5020005000026423241351B
:1022D0002B781670314A283BC2624685426C040056
:1022E0000A434264022B24D80321FFF735FC28233C
:1022F0002B702B4B26636363236880221968D201FD
:102300000E00164011421FD01A682649A06B0A40E1
:102310001A6000280CD0244B002243632300403372
:102320001A70FFF792FB002802D0A06B436B98470E
:1023300070BD0721FFF710FC2B78602B01D0202304
:102340002B7000232363D6E718688021020009025E
:102350000A40084211D01A681449E06B0A401A601A
:102360000028E5D0104B4363230040331E70FFF775
:102370006CFB0028DCD0E06BD8E7230029784033E1
:10238000602906D14039297020001A70FFF798FFA4
:10239000CEE720001A70FFF757F9C9E70000FFFFEA
:1023A000A9240008FFBFFFFF732A0008FF7FFFFF7B
:1023B0002022F8B5036804001D680F00DA610721C8
:1023C000FFF7CAFB802223681202596820000A43E3
:1023D0005A605A6832490A405A60FFF765FB012388
:1023E0006A0438D5A36B002B03D01B685B689BB2D3
:1023F00063857B0711D504239F432368626A5B6A68
:102400001370636A01336362238D002B05D0013B97
:102410002385638D013B9BB26385638D002B03D0C5
:102420000423626C134363642200002325004232BC
:1024300023631370666C636341359E4210D02000A5
:10244000616CFFF73FFF2B78282B03D13900200068
:10245000FFF700FFF8BDED0B1D42CAD0E36BC2E7EA
:102460002700E36A0F4A403793420BD02000FFF762
:102470008AFE20230B4A2000E2622B703E70FFF799
:10248000B3F8E7E720232A7820002B703E70222A39
:1024900002D1FFF7BFF8DDE7FFF7D2F8DAE7C04671
:1024A00000E800FE0000FFFF0300F7B54033019392
:1024B0001B780400C76A0E0015000220012B24D0EF
:1024C0000123019A13704A091A4205D06A091A4277
:1024D00002D02000FFF76CFF0123F20635D52A0950
:1024E0001A4232D0638D002B20D1230041331A7859
:1024F000282A0BD180229204974207D13100200074
:10250000FFF7A8FE0020019B1870FEBD102219786D
:102510002368DA612929F5D133498F42F2D02000AE
:10252000FFF7C2FA2000FFF72EFEEBE71022236828
:10253000DA610423626C134363642C4B1F42E1D1C4
:102540002000616CFFF7BEFEDCE7012372071AD59D
:10255000AA081A4217D0638D002B0DD02368626A37
:102560005B6A1370636A01336362238D013B2385C9
:10257000638D013B9BB26385638D002BC2D11A4BE7
:102580009F42BFD0CEE70123320711D5EA081A4295
:102590000ED02300282241331B781340934203D1ED
:1025A0002000FFF719FEADE708222368DA61A9E7EA
:1025B0000123B207A6D5DD401D42A3D0638D002BB9
:1025C0000DD0636A22681978013391626362638D6A
:1025D000013B9BB26385238D013B238592E7034B2F
:1025E0001F429FD08EE7C0460000FFFFFFFFFFFEA7
:1025F0002022036810B5DA615A68040027480240B7
:102600005A60002222636263254AE262CA0605D547
:102610001022DA610423626C134363642000FFF725
:1026200043FA03212000FFF797FA22004132636C3E
:102630001178602901D0002B04D02000616CFFF7D5
:1026400041FE10BD1178212912D1013911702200EB
:10265000210042321078403113700B70402803D1B2
:102660002000FFF72BFEECE72000FFF766FDE8E710
:1026700011782229E5D1023911702200210042325D
:102680001078403113700B70402803D12000FFF701
:1026900016FED6E72000FFF751FDD2E700E800FE66
:1026A0000000FFFFF7B5070040373B7804000D003E
:1026B00016000220012B1DD001230A093B701A428B
:1026C00019D032091A4216D0102223682000DA618C
:1026D0000423626C13436364FFF7E6F90123AA063F
:1026E00006D576091E4203D029002000FFF780FF9F
:1026F00000203870FEBD01236A0713D5B2081A42C4
:1027000010D003339D432368626A5B6A1370636A67
:1027100001336362238D013B2385638D013B9BB2B3
:102720006385DBE70123AA0707D572081A4204D0A4
:10273000636A226819789162EAE701232A0634D590
:10274000B2091A4231D0628D2368002A21D0208D2F
:1027500000281ED15968638D8905890DFF2B08D982
:10276000FF228023228500905B042000FFF7AAF956
:10277000B4E7628DE36A92B29C46194B2285D2B2CD
:102780009C4502D0E36A0090EFE7802300909B0411
:10279000EBE75B689B0103D42000FFF7D0FC9DE7CB
:1027A00040212000FFF78EFD98E701236A0600D440
:1027B00094E7B2091A4200D190E7638D002BEFD164
:1027C00023685A68920100D588E7E16A044A914279
:1027D000E2D180225968D2010A435A607EE7C0469E
:1027E0000000FFFF0300F7B5403301931B7804009E
:1027F000C76A0E0015000220012B3DD00123019A6B
:1028000013704A091A4205D06A091A4202D0200000
:10281000FFF7CEFD0120F30652D52B0903424FD01E
:10282000AB0BED0B9C462B43034245D0E16B0B1EDB
:1028300006D00023054203D00B685B685A4253411F
:10284000A26B002A06D06146C90703D512685268F8
:10285000002A01D0012B20D1230041331A78282AE5
:102860000BD180229204974207D131002000FFF75C
:10287000F1FC0020019B1870FEBD1022197823681E
:10288000DA612929F5D118498F42F2D02000FFF7EB
:102890000BF92000FFF777FCEBE710222368DA61E1
:1028A0000423626C13436364104B1F42E1D1200088
:1028B000616CFFF707FDDCE710222368DA61D8E7D7
:1028C00001233207D5D5ED081D42D2D0230028229E
:1028D00041331B781340934203D12000FFF77CFC67
:1028E000C7E708222368E9E70000FFFFFFFFFFFEBC
:1028F00037B5050040352B7804000220012B17D096
:10290000012308092B70184213D01009184210D067
:10291000102223682000DA610423626C1221134321
:102920006364FFF7E3F82000FFF7BEF8002028708B
:102930003EBD0123080646D59009184243D04021E8
:1029400023681A688A431A60628D002A2FD059685A
:10295000638D8905890DFF2B1BD9FF2323858023D8
:102960005B040020228D0090D2B22000FFF7AAF86D
:10297000638D228D9B1A9BB26385230041331A78A5
:1029800023681968222A0FD1802212020A431A6092
:10299000CCE7638DE26A23851C4B9A4201D0E36A3F
:1029A000DFE780239B04DCE78022D201EEE75B684F
:1029B0009B0103D42000FFF7C2FBB7E740212000B2
:1029C000FFF780FCB2E70123480613D590091842AF
:1029D00010D0638D002BF1D123685A689201A5D4E1
:1029E000E16A0A4A9142E5D180225968D2010A433C
:1029F0005A609BE70123880600D497E752091A42E0
:102A000000D193E72000FFF7F3FD8FE70000FFFF01
:102A1000036870B59C6901211A68E50508D5D509D8
:102A20000D4205D0456C2943416480214900D9619C
:102A30000121650509D5D5090D4206D0456C073140
:102A4000294341648021C900D9610121A40509D528
:102A5000D2090A4206D00222416C0A434264802213
:102A60009200DA610B23416C194201D0FFF72AFC76
:102A700070BD0023406A10B5826B5363C26B536311
:102A8000030041331A78602A04D1403A1A70FFF7E4
:102A900017FC10BDFEF7D8FDFBE741300078C0B24F
:102AA0007047406C70470000F0B5040085B0002806
:102AB0004ED00368DB0733D423689B0700D58AE038
:102AC00023681B0700D5CAE023685B0700D5EDE04B
:102AD0002368DB061AD562690423BC4D012A00D0A5
:102AE00058E1696B02270B436B636B6B1A436A6394
:102AF000FEF750FF06006B6B3B4200D143E1F8212B
:102B00006A6BA3698A43DB0013436B6323689B06EC
:102B100000D567E1636A002B00D0A4E100202FE01C
:102B20000C21AA4D6A680A40042A0BD06B680B403E
:102B3000082B0FD1C0226B68520213408022520230
:102B4000934207D12B689B03B6D56368002BB3D1A2
:102B5000012015E06368012B14D180232A685B02F1
:102B600013432B60FEF716FF80270600BF022B6879
:102B70003B42A1D1FEF70EFF801B6428F7D903204A
:102B800005B0F0BD002B16D12B68914A8027134069
:102B90002B602B688F4ABF0213402B60FEF7FAFEB2
:102BA00006002B683B4200D186E7FEF7F3FE801B50
:102BB0006428F6D9E3E7052B05D180232A68DB02D8
:102BC00013432B60C9E72B68814A13402B602B68A5
:102BD000804A1340C5E70C227C4D6B6813420BD032
:102BE0006B681340082B15D1C0226B68520213404A
:102BF0008022120293420DD12B689B0702D5E36815
:102C0000012BA5D1F8212A6823698A43DB001343ED
:102C10002B6055E7E2680123002A0FD02A680227BB
:102C200013432B60FEF7B6FE06002B683B42E9D14A
:102C3000FEF7B0FE801B0228F7D9A0E72A6802271A
:102C40009A432A60FEF7A6FE06002B683B4200D19D
:102C500036E7FEF79FFE801B0228F6D98FE7E26970
:102C600001235A4D002A10D06A6A022713436B626F
:102C7000FEF790FE06006B6A3B4200D024E7FEF7A9
:102C800089FE801B0228F6D979E76A6A02279A43EF
:102C90006A62FEF77FFE06006B6A3B4200D113E7D3
:102CA000FEF778FE801B0228F6D968E78022002113
:102CB000464D5205EB690091134208D1EB6913436D
:102CC000EB61EB6913400393039B0123009380277F
:102CD000414E7F0033683B4206D0A368012B13D1DD
:102CE0002A6A13432B6230E033683B433360FEF7BC
:102CF00051FE019033683B42EFD1FEF74BFE019B42
:102D0000C01A6428F6D93AE70122002B14D12B6AA5
:102D1000022793432B622B6A033293432B62FEF705
:102D200039FE06002B6A3B4216D0FEF733FE2B4BD2
:102D3000801B9842F6D922E7052B16D1296A013B60
:102D40000B432B622B6A1A432A62FEF723FE0227EB
:102D500006002B6A3B420FD0009B012B00D0B7E648
:102D6000EB691F4A1340EB61B2E62B6A93430422DE
:102D70002B622B6A9343B5E7FEF70CFE174B801BC3
:102D80009842E6D9FBE6FEF705FE801B022800D834
:102D9000B1E6F4E6053203D16A6B9A436A63AEE6A4
:102DA0006A6B0227134301226B636B6B93436B6364
:102DB000FEF7F0FD06006B6B3B4200D1A6E6FEF786
:102DC000E9FD801B0228F6D9D9E6C0460010024072
:102DD000FFFFFEFFFFFFFBFF0070004088130000B5
:102DE000FFFFFFEF0C21544D6A680A408A4209D068
:102DF0006B680B40082B0ED1C0226B685202134047
:102E0000934208D16B6BDB0300D483E6236A012B6A
:102E100000D09DE67EE6236A002B11D080266B6BE6
:102E2000760233436B63FEF7B5FD07006B6B3342ED
:102E300000D06FE6FEF7AEFDC01B0228F6D99EE675
:102E40006B6B3E4A802713406B63FEF7A3FD0600C1
:102E50007F026B6B3B4200D15CE6FEF79BFD801B63
:102E60000228F6D98BE60C20334A51681500014040
:102E7000082947D0324A022B32D12B6880271340D1
:102E80002B60FEF787FD0600BF042B683B4221D173
:102E90000F22EB6A80269343226BB6041343EB6246
:102EA000A16AE36A6A680B4326490A4013436B60D0
:102EB00080232A685B0413432B60FEF76BFD04003C
:102EC0002B68334200D029E6FEF764FD001B022880
:102ED000F6D954E6FEF75EFD801B0228D5D94EE6F2
:102EE0002B68802613402B60FEF754FD0400B604C7
:102EF0002B68334200D111E6FEF74CFD001B02287F
:102F0000F6D93CE6012B00D122E6C0215368A06A25
:102F10004902D26A1940814200D019E60F210A40C5
:102F2000216B8A4200D013E6F02292031340E26A3A
:102F3000934200D1F2E50BE600100240FFFFFEFFD6
:102F4000FFFFFFFEFF7FC2FF30B589B01022194995
:102F5000684604AD01F0D6FA10222800164901F0A7
:102F6000D1FA0C20154A53681840082809D00C38AB
:102F7000431E9841124B40421840124BC01809B0F2
:102F800030BD0F206C46D26A990C01400240645C4F
:102F9000A95CC0228020520213404002834201D12A
:102FA000094802E09342FBD10648FDF793F86043DD
:102FB000E5E7C046B4480008C548000800100240D4
:102FC00000A69DFD006CDC0200127A00F7B505003A
:102FD0000F00002801D10120FEBD01223B4C2368D7
:102FE00013408B421CD329688B0722D4CB072FD4E4
:102FF000012322681A40BA4259D82B68344C5B0727
:103000005CD4FFF7A1FF6368324A1B061B0FD35C39
:10301000D840314B18600020FEF77CFC0020DBE735
:10302000236893430B432360236813408B42D2D120
:10303000D9E7274A4B0704D5E0235068DB00034358
:103040005360F02053688343A86803435360CDE77F
:103050006A681F4E012A1AD133689B03BBD503212E
:1030600073688B4313437360FEF794FC01900C2349
:1030700072681A406B689B009A42B9D0FEF78AFCCE
:10308000019BC01A154B9842F1D90320A4E7022AEC
:1030900003D133689B01E2D49DE7032A03D1736B0C
:1030A000DB03DCD497E733689B07D8D493E7226827
:1030B0009A43226022681A429FD08CE76368084ACC
:1030C0001340EA68134363609BE7C0460020024058
:1030D00000100240804900081C00002088130000F6
:1030E000FFF8FFFF044B054A5B685B055B0FD35C91
:1030F000034A1068D8407047001002409049000809
:103100001C000020F0B50368050085B0DB032AD55C
:1031100080220021414C5205E3690091134208D1FD
:10312000E3691343E361E36913400393039B0123C2
:10313000009380273A4E7F0033683B423AD0226AA0
:10314000C02311009B00374E19401A4244D1236A14
:103150001E406B681E43009B2662012B03D1E3696E
:10316000314A1340E3612A68D30706D503202B496F
:103170000B6B8343A86803430B63930606D51020AB
:1031800026490B6B8343E86803430B63930306D51F
:10319000802022490B6B8343686903430B63002043
:1031A000530517D540211D4A136B8B4329690B43E7
:1031B00013630FE033683B433360FEF7EBFB019092
:1031C00033683B42BBD1FEF7E5FB019BC01A642884
:1031D000F6D9032005B0F0BD6A6813408B42B6D023
:1031E0008023226A206A11005B0203432362236A60
:1031F0000E483140034023622162D307A7D5FEF772
:10320000C9FB07000222236A1342A0D1FEF7C2FBCA
:10321000074BC01B9842F5D9DBE7C04600100240BF
:1032200000700040FFFCFFFFFFFFFFEFFFFFFEFF0E
:1032300088130000036810B59A680400D2040AD508
:10324000DB68DB0507D500F03DFC2168054BCA684B
:10325000D2B21343CB608022034B92025A61012306
:10326000637710BD7FFEFFFF00040140E02103688B
:1032700010B55A688A435A608222416852009142CE
:103280000CD18021826809028A4203D08021C900C2
:103290008A4203D140211A688A431A608021826AD7
:1032A00089018A4206D11968074C214019601968C2
:1032B0000A431A60030001225D331A7000235C3058
:1032C0000370032010BDC046FFDFFFFFF8B5040008
:1032D0000D001600802722689368180038403B4292
:1032E00009D06B1CF8D0FEF755FB801B8542F2D845
:1032F0002000FFF7BBFFF8BDF7B5C02705000C00A5
:1033000016000193FF002A689368180020402342AA
:103310000DD0BC4200D1137B731CF5D0FEF73AFBF5
:10332000019BC01A8642EED82800FFF79FFFFEBD22
:1033300070B513000D0016000A00C02149010400F9
:10334000FFF7DAFF002805D02023226E0320134365
:1033500023660FE0320029002000FFF7B7FF0028A6
:10336000F2D1C02133002A002000C900FFF7C4FFBA
:103370000028E9D170BD7047F8B504000120002C89
:103380004ED000232500A3625D352B78DAB2002BE6
:1033900005D123005C3320001A70FFF7ECFF0223F5
:1033A00040212B702268E06813688B43E021136092
:1033B000C9000023884234D880267601884201D192
:1033C00001E01E00A362236B002B04D1023388426C
:1033D00000D801232363A7686368A1693B43276979
:1033E0003B4367693B43E7693B43276A3B43A76A23
:1033F0003B438027BF000F403B431360636A090CC7
:103400001843636B18430423194001430E4356606D
:10341000D369074900200B40D361012320662B703C
:10342000F8BDF0263601B042CBD11E00CBE7C04636
:10343000FFF7FFFFF7B51E0003005C3317001A7893
:1034400004000D000220012A00D1ACE001221A7014
:10345000FEF7A0FA230001905D331B786168DAB2B1
:10346000012B0CD0822302205B00994200D093E014
:10347000A368002B00D08FE0042A00D08CE001204C
:10348000002D00D188E0002F00D185E0002E00D172
:1034900082E023005D331A78042A01D005221A70D5
:1034A00022000023083223662764D687A21DD68710
:1034B000E022E068E3642365A5632368E687A687C6
:1034C000D200904201D8012E30D95A68714F3A404B
:1034D0005A6040221F68174202D11F683A431A609F
:1034E000E022D20090425FD9002901D0012E07D1FD
:1034F0002A880235DA60E38FA563013B9BB2E3873C
:10350000012502272E00E38F002B14D1230008335E
:10351000DB8F002B0FD12000019A0899FFF708FFDD
:10352000002839D020230120236635E080225F68FF
:1035300052013A43CCE7206883683B420ED0E38FC8
:10354000002B0BD0012D09D10025A36B1A88023363
:10355000C260A363E38F013B9BB2E38783681900DA
:10356000314033420ED022000832D38F002B09D0D5
:103570000D00C068236C188002332364D38F013B95
:103580009BB2D387FEF706FA019BC01A089B9842AC
:10359000B9D30133B7D00320230001225D331A7061
:1035A00000235C342370FEBD002901D0012E0AD116
:1035B000E28F012A53D92A880235DA60E38FA563A6
:1035C000023B9BB2E387012502272E00E38F002BED
:1035D00005D123000833DB8F002B00D19BE7226845
:1035E00093683B4211D0E38F002B0ED0012D0CD1FC
:1035F000E18FA36B01293AD919880233D160A36303
:10360000E38F023B00259BB2E387206883681900A3
:103610003140334219D023000833DA8F002A14D006
:10362000DD8F226C012D2AD9C568158002322264F3
:10363000DA8F0D00023A92B2DA87DB8F012B04D8C1
:10364000802342685B0113434360FEF7A3F9019BAB
:10365000C01A089B9842B9D30133B7D09BE72A78A8
:103660001A73A36B0133A363E38F013BA9E71B78B4
:103670001373A36B0133A363E38F013BC2E7007BAA
:103680000D001070226C01322264DA8F013A92B27E
:10369000DA87DAE7FFEFFFFF70477047022203681F
:1036A00010B51969040011420ED0D96811420BD02F
:1036B000053A1A61043202779B699B0700D179E0D1
:1036C00000F030FE00232377042223681969114299
:1036D00010D0D96811420DD0093A1A610732227709
:1036E0009A69C0239B0020001A4269D000F01AFE9C
:1036F0000023237708222368196911420ED0D96864
:1037000011420BD0113A1A610D322277DB69200089
:103710009B075BD000F006FE00232377102223686E
:103720001969114210D0D96811420DD0213A1A619D
:1037300019322277DA69C0239B0020001A424BD04D
:1037400000F0F0FD0023237701222368196911425C
:1037500007D0D968114204D0033A20001A6100F062
:10376000E9FD802223681969114208D0D968114205
:1037700005D0023AFF3A20001A6100F097F8402283
:1037800023681969114207D0D968114204D0813ADF
:1037900020001A61FFF781FF202223681969114276
:1037A00007D0D968114204D0413A20001A6100F0D4
:1037B0007CF810BD00F0BAFD2000FFF76DFF81E737
:1037C00000F0B4FD2000FFF767FF91E700F0AEFDC9
:1037D0002000FFF761FF9FE700F0A8FD2000FFF742
:1037E0005BFFAFE71D4A10B50368904206D0802406
:1037F000E405A04202D01A4CA0420CD17024A3438D
:103800004C68234390420FD08024E405A0420BD0A3
:10381000134CA04208D0134CA04205D0124CA04239
:1038200002D0124CA04203D1114C2340CC68234358
:103830008024A3434C69234303608B68C3620B68F5
:103840008362904205D0084B984202D0074B9842C1
:1038500001D10B6903630123436110BD002C0140BA
:1038600000040040002000400044014000480140A6
:10387000FFFCFFFF70B504000120002C14D02500D0
:103880003D352B78DAB2002B05D123003C332000E4
:103890001A7000F06BFA02232B702068211DFFF7CD
:1038A000A1FF012300202B7070BD704770470000FE
:1038B0001FB5002303280FD8164B80215A69FCF747
:1038C000FFFB020E172089020A435A615B690B4015
:1038D0000093009B9023DB05180005B000BDC902D2
:1038E0000A435A615B690B400193019B0A4BF3E762
:1038F00009030A435A615B690B400293029B074B21
:10390000EAE7C9030A435A615B690B400393039BCF
:10391000034BE1E7001002400004004800080048A3
:103920000014004810B5FEF735F810BD704710B50B
:10393000FEF724F8FEF785F8FFF7F8FF10BD10B585
:10394000FEF70CF800F000FB10BD431C04D1002072
:103950007047834205D00C3100228B5E5A1CF8D18F
:10396000F5E70120F4E700000F23F0B5072585B047
:1039700082B204091C4003920340344A9B009F58C2
:1039800002910D40431C03D14721314800F0B0F8AB
:103990003E002000FFF78CFF03237E437343D9438F
:1039A00082680400134301918360032D20D828000E
:1039B000FCF786FB12120212029B5904039B490E6C
:1039C0001B070BD50F203B0A5B435B4358434B431C
:1039D000626A8243134363622B000EE032000F20C1
:1039E000724350435143236A83430B432362F3E7FB
:1039F0007121174800F07CF8002373432268019975
:103A0000013D0A4013432360012D05D8029B1B078B
:103A10000DD563683B436360029B9906890F0129BA
:103A200008D002290DD0E668019B1E4006E06368BD
:103A3000BB43F0E7E368019A13401E43E66005B01C
:103A4000F0BDE368019A76001340F6E740490008AC
:103A5000D648000810B5431C07D110BD834203D1DE
:103A60008968FFF781FFF8E70C3100228B5E5A1C52
:103A7000F4D19D21014800F03BF8EEE7D64800085C
:103A800000228B5E5A1C01D1002002E0834201D14A
:103A9000486870470C31F3E7030010B500205A1C4A
:103AA00002D01800FFF7ECFF10BD030008008B42A6
:103AB00004D0002B02D0002901D11800704700204B
:103AC000FCE70000044B10B51B68002B02D0034A32
:103AD0001068984710BDC0462C02002050020020FC
:103AE00010B50248FFF7A6FB10BDC046300200200B
:103AF000FEE700000121114B11481A680A431A60C1
:103B00005A6802405A601A680E4802401A601A68E1
:103B10000D4802401A605A680C4802400F205A6053
:103B2000DA6A8243DA621A6B094802401A635A6BF6
:103B30008A435A6300229A607047C04600100240D0
:103B40000CB8FF08FFFFF6FEFFFFFBFFFFFFC0FF03
:103B50002CFEFFFF0438704710B50368294A86B071
:103B6000934217D180242849240188692043886121
:103B70008A6922400092009A244A934235D18020DB
:103B8000214AC00291690143916193690340059301
:103B9000059B2AE08022D205934213D01C4A93420F
:103BA0001AD01C4A934222D01B4A9342E4D180206F
:103BB000154A80029169014391619369034004931E
:103BC000049B12E001241049C8692043C861CA69F6
:103BD00022400192019ACFE702200B4AD1690143AA
:103BE000D161D36903400293029B06B010BD8020CF
:103BF000054A4000D1690143D161D3690340039371
:103C0000039BF2E7002C01400010024000480140F5
:103C10000004004000200040004401400368194AAD
:103C200093420BD1184919488A6902408A61184A9F
:103C3000934221D1144A174993690FE08022D2059B
:103C400093420ED0144A934211D0144A934214D096
:103C5000134A9342EBD10C4A124993690B4093618A
:103C60000AE001200849CA698243CA61DFE70221EC
:103C7000054AD3698B43D3617047034A0A49D36924
:103C80000B40F8E7002C014000100240FFF7FFFF57
:103C900000480140FFFFFBFF0004004000200040FF
:103CA00000440140FFFFFDFFFFFEFFFF010010B5D4
:103CB000431C14D00F4B0D20994212D012D80E4B3A
:103CC000033099420DD00D4B0330994209D0802327
:103CD0000438DB05994204D00948FFF709FF0E209C
:103CE000404210BD074B15209942FAD0064B0130D7
:103CF000F0E7C046002C01400004004000200040D6
:103D0000984900080044014000480140010010B5F6
:103D1000431C14D00F4B0E20994212D012D80E4BD8
:103D2000023099420DD00D4B0330994209D08023C7
:103D30000438DB05994204D00948FFF7D9FE0E206C
:103D4000404210BD074B15209942FAD0064B013076
:103D5000F0E7C046002C0140000400400020004075
:103D600098490008004401400048014070B5040033
:103D7000FFF7F2FE2068FFF799FF626C216CFDF7F8
:103D80000FFE2068FFF792FFFDF734FE2068FFF773
:103D9000BDFF06002068FFF789FF86420BD0206830
:103DA000FFF7B4FF626C216CFDF7FAFD2068FFF7A6
:103DB000ADFFFDF71FFE70BDF8B5134F05003900CC
:103DC000FFF76AFE00F02CFA104E8400A359002B76
:103DD0000DD139002800FFF75FFE07006C2000F0CE
:103DE0004BFB0500390000F045FAA3591D6033591B
:103DF0001C68002C06D0200000F082FA6C21200004
:103E000000F03EFBF8BDC046704A00089403002055
:103E1000836810B50400002B02D0032201009847EC
:103E2000200010BD002310B5012803D00133400845
:103E3000DBB2F9E714225343044A181D8018816845
:103E4000002902D0D2181369984710BD54020020EF
:103E500010B50120FDF71CFE0220FDF719FE10BD74
:103E600010B50420FDF714FE0820FDF711FE10BD6B
:103E700070B50C241025A8B2013CFDF709FE6D00B9
:103E8000002CF8D170BD0000274B10B505211C0097
:103E9000180000221970197528340131217008307A
:103EA0001C00C26718003C3421708C300131017055
:103EB0001800983002601800A03001701800AC3073
:103EC00002601800B43001701800C03002601800A1
:103ED000C83001701C0018005034D43002602170CA
:103EE00018001C00DC3064340170217018001C00C4
:103EF000E83078340260217018001C00F030FF3484
:103F000001706171617618009624FC306400DA60FB
:103F10001A625A639A64DA651A67026042618262C1
:103F20001955C26310BDC0465402002010B5044CA0
:103F3000143C201DFFF76CFF024B9C42F8D110BDD2
:103F4000940300205402002010B5102498B03022B1
:103F500000210CA800F0DFFA2200002101A800F0E7
:103F6000DAFA1822002105A800F0D5FA3A230BA8A6
:103F70000B93393B0E93139310930F941194129358
:103F8000FEF792FD002803D06E211448FFF7B0FD24
:103F900007230193043B02930023012101A803930B
:103FA0000493FFF713F8002803D07A210B48FFF79A
:103FB0009FFD0B4B802205930023920005A80793D9
:103FC000089306920A93FFF79DF8002803D08521F5
:103FD0000248FFF78DFD18B010BDC046EC4C00083C
:103FE000210003001348854613480168090E134A4F
:103FF000914205D1124813490160134813490160E9
:1040000013481449144A002302E0D458C45004331E
:10401000C4188C42F9D3114A114C002301E01360FB
:104020000432A242FBD3FFF765FD00F033FA00F043
:1040300013FAFEE700180020040000001F00000033
:1040400018100240010000000000014000000000C4
:104050000000002084000020D04E000884000020D2
:10406000D8030020FEE70000F7B50E0022282BD869
:104070001D4B4000C45E631C26D00F2325091D4044
:104080001A4F23400193AD00EB59019AD340DB074F
:104090000ED520001649FFF758FC002802D020005A
:1040A000FFF78AFE0123019A93407A599A437A5185
:1040B000052E14D83000FCF703F8030E080A0C1084
:1040C00000212000FFF750FCF7BD1021F9E7202167
:1040D000F7E70321F5E70121F3E70921F1E749219A
:1040E0000448FFF705FDEFE7504D0008AC03002042
:1040F000704A0008964D000810B5222815D80D4BBF
:104100004000C35E0C241A090020224204D10F3063
:1041100002400948920010580F221340074A9B00A2
:104120009B58002904D0836110BD01235B42E9E75D
:104130008362F9E7504D00080C0000204049000858
:10414000222815D80D4B4000C35E0C211A090A42E3
:1041500011D103310A480A40920012580B40094914
:104160009B005B5810691840C01A43425841704781
:1041700001235B42E9E700231B69FFDE504D000885
:104180000C0000204049000810B5FFF7CBFB10BD24
:1041900070B5041E09D0FFF7C5FB050000F078F9E3
:1041A000FFF7C0FB401BA042F8D370BD10B5041E42
:1041B00003D106490648FFF79BFC2000FFF7CAFC25
:1041C0000068836D002B00D0984710BD05040000E7
:1041D000F44D000870B5051E04D183210F48C900B5
:1041E000FFF786FC287F0138072810D8FBF768FF07
:1041F00014040F100F0F0F1202242800FFF7AAFC5F
:1042000016340068A4002358002B00D0984770BDD6
:104210000324F2E70424F0E70124EEE7F44D00085C
:104220000E4A0300904215D08022D205904213D04E
:104230000B4A022093420CD00A4A0130934208D024
:10424000094A0130934204D00848094A934200D1F8
:10425000052070470020F8E70120F6E7002C014018
:10426000000400400020004000440140FFFF000027
:1042700000480140F8B5040008000F00FFF7D0FF28
:104280001C4E0500B04203D132211B48FFF730FC21
:1042900022001A4B0C32AD00EA50230000252C33CB
:1042A00027611D702700203325636563A563E563DF
:1042B00025646564A5641D705D70032310373800A4
:1042C00023656565E460FFF747FC80233800A5653A
:1042D000E56525666566A56625606560A56065611E
:1042E000E661A56125626562A362FFF7C3FA20005B
:1042F000F8BDC046FFFF0000F44D00089403002005
:1043000070B504000069FFF78BFF05002000103036
:10431000FFF784FC0022024BAD002000EA5070BD84
:104320009403002010B5FFF755FF10BD10B5FFF73F
:1043300051FF10BD10B5FFF739FF10BD044B10B58C
:104340001868002802D00430FFF7A8F910BDC04655
:104350009403002010B5FFF7F1FF10BD044B10B51A
:104360005868002802D00430FFF798F910BDC04605
:1043700094030020044B10B59868002802D0043044
:10438000FFF78CF910BDC04694030020044B10B514
:10439000D868002802D00430FFF780F910BDC0466D
:1043A00094030020044B10B51869002802D0043093
:1043B000FFF774F910BDC04694030020044B10B5FC
:1043C0005869002802D00430FFF768F910BDC046D4
:1043D0009403002010B50400FFF7D6FEE0602368C8
:1043E0002000DB689847002808DAFFF7CDFEE36875
:1043F000C01AA3689842F2D30120404210BDF8B51C
:1044000006000D0017000024BC4207D03000FFF763
:10441000E1FF002802DB28550134F5E72000F8BD54
:10442000F7B506000F001D001C1E01920CD00024E1
:104430003000FFF7CFFF002806DBB84204D0019B15
:1044400018550134A542F3D12000FEBD704710B5C8
:1044500000F01AF810BD000010B5FFF7F7FFFCF7E9
:10446000C5F8FCF727F8034B002BFAD000E000BF9B
:10447000F7E7C0460000000010B500F02FF810BDAF
:1044800010B500F035F810BD10B5FFF758FA10BDA3
:104490007047000070B500260C4D0D4C641BA41035
:1044A000A64209D1002600F043F90A4D0A4C641BCC
:1044B000A410A64205D170BDB300EB589847013651
:1044C000EEE7B300EB5898470136F2E7B44E000828
:1044D000B44E0008B44E0008C84E000810B5034B97
:1044E0000100186800F06AF810BDC04620000020E6
:1044F00010B5034B0100186800F016F810BDC04657
:1045000020000020002310B59A4200D110BDCC5CE1
:10451000C4540133F8E703008218934200D1704776
:1045200019700133F9E7000070B50500002910D0BB
:104530000C1F2368002B00DAE418280000F0BAF8FA
:104540001D4A1368002B05D163601460280000F039
:10455000B9F870BDA34208D9216860188342F3D12D
:1045600018685B6841182160EEE71A005B68002B51
:1045700001D0A342F9D911685018A0420BD120688C
:104580000918501811608342E0D118685B6841181F
:1045900011605360DAE7A04202D90C232B60D5E703
:1045A00021686018834203D118685B684118216054
:1045B00063605460CAE7C046BC030020F8B503231B
:1045C000CD1C9D43083506000C2D1FD20C25A94299
:1045D0001ED8300000F06EF825490A681400002C3F
:1045E0001AD1244F3B68002B04D12100300000F089
:1045F0004DF838602900300000F048F8431C2BD1FA
:104600000C233000336000F05DF803E0002DDEDAAB
:104610000C2333600020F8BD23685B1B19D40B2BDF
:1046200003D92360E418256003E06368A2420ED139
:104630000B60300000F046F8200007220B30231DED
:104640009043C21A9842E6D01B1AA350E3E7536086
:10465000EFE722006468C2E70323C41C9C43A04226
:10466000E1D0211A300000F011F8431CDBD1C7E77C
:10467000BC030020C003002010B5034B0A0001005A
:10468000186800F027F810BD20000020002370B546
:10469000064D040008002B60FDF71CF9431C03D1F4
:1046A0002B68002B00D0236070BDC046C8030020DB
:1046B0007047704710B50248FFF7FAFF10BDC046BB
:1046C000D003002010B50248FFF7F3FF10BDC0462D
:1046D000D0030020F8B507000D001600002905D111
:1046E0001100FFF76BFF04002000F8BD002A03D182
:1046F000FFF71AFF3400F7E700F012F82C00B04281
:10470000F2D231003800FFF759FF041EECD0290027
:104710003200FFF7F7FE29003800FFF705FFE3E757
:104720000B1F1B68181F002B01DA0B58C0187047AD
:10473000F8B5C046F8BC08BC9E467047F8B5C04600
:08474000F8BC08BC9E4670475E
:104748000B0C0A08090605000102030407121415D8
:10475800191E1F1D0F10111617181A1B1C4E6F203B
:10476800656E6F756768206D656D6F727921202899
:104778002569290A002F55736572732F6A67622F9E
:10478800446F63756D656E74732F41726475696EDD
:104798006F2F68617264776172652F73746D33323D
:1047A8002F41726475696E6F5F436F72655F535412
:1047B8004D33322F6C69627261726965732F576964
:1047C80072652F7372632F576972652E637070005C
:1047D8000000000000000000B10C0008010D0008F6
:1047E800370C00083F0C0008590C0008E90F0008B6
:1047F800FF430008214400082F55736572732F6A20
:1048080067622F446F63756D656E74732F417264B0
:1048180075696E6F2F68617264776172652F737442
:104828006D33322F41726475696E6F5F436F7265C5
:104838005F53544D33322F6C6962726172696573CC
:104848002F576972652F7372632F7574696C697459
:10485800792F7477692E6300A086010080380100E3
:10486800C0D4010000007A0DFA005C12A00F80028B
:1048780014000000801A060000E20400005307003C
:1048880000008403640014055802FA006400000064
:1048980040420F0000350C00804F12000000C2019A
:1048A8003200F40104013C00640000000203040526
:1048B800060708090A0B0C0D0E0F10100001020361
:1048C8000405060708090A0B0C0D0E0F10002F55DA
:1048D800736572732F6A67622F446F63756D656EB7
:1048E80074732F41726475696E6F2F686172647793
:1048F8006172652F73746D33322F41726475696EFE
:104908006F5F436F72655F53544D33322F6C69622A
:104918007261726965732F53726357726170706543
:10492800722F7372632F73746D33322F70696E6DCB
:1049380061702E630000000001000000020000000A
:104948000400000008000000100000002000000023
:10495800400000008000000000010000000200008C
:104968000004000000080000001000000020000003
:10497800004000000080000000000000000000006F
:1049880001020304060708090000000001020304ED
:1049980054494D3A20556E6B6E6F776E2074696D71
:1049A8006572204952516E00090000000054004011
:1049B8000A0400000B000000005400400A05000033
:1049C80016000000005400400A0100001800000012
:1049D800005400400A0100001A0000000054004082
:1049E8000A0100001D000000005400400A000000F9
:1049F80031000000005400400A010000FFFF0000E1
:104A080000000000000000000A0000000054004000
:104A18000A0400000C000000005400400A050000D1
:104A280017000000005400400A01000019000000AF
:104A3800005400400A0100001B0000000054004020
:104A48000A0100001E000000005400400A00000097
:104A580030000000005400400A010000FFFF000081
:104A680000000000000000000000000000000040FE
:104A78001282000001000000000000401202010044
:104A88000200000000000040128201000300000044
:104A98000000004012020200040000000020004054
:104AA800128400000500000000000040128200008F
:104AB800060000000004004012810000060000000B
:104AC800004401401285000007000000002C01404E
:104AD80012821000070000000004004012010100CB
:104AE80007000000002000401284000007000000BA
:104AF800004801401285000008000000002C014019
:104B08001282000009000000002C0140120201007E
:104B18000A000000002C0140128201000B00000076
:104B2800002C0140120202000F00000000000040AB
:104B38001282000010000000002C01401202110037
:104B48001000000000040040128101001100000064
:104B5800002C0140128211001100000000040040E6
:104B68001201020011000000002000401280000025
:104B780013000000000000401202010014000000B1
:104B880000040040128100001500000000040040ED
:104B980012010100160000000044014012821000BA
:104BA80017000000004801401282100018000000A1
:104BB8000044014012820000190000000048014032
:104BC800128200001A00000000000040128201005A
:104BD8001B00000000000040120202001D0000003F
:104BE800002C0140128210001E000000002C014021
:104BF800120211001F000000002C01401282110057
:104C0800FFFF000000000000000000000600000098
:104C18000030014012000000140000000030014084
:104C2800120000001E0000000038004012000000C2
:104C3800FFFF000000000000000000000700000067
:104C48000030014012000000150000000030014053
:104C5800120000001F000000003800401200000091
:104C6800FFFF000000000000000000000500000039
:104C78000030014012000000130000000030014025
:104C8800120000001A000000003800401205000061
:104C98001D0000000038004012000000FFFF000067
:104CA8000000000000000000040000000030014087
:104CB800120000000F000000003001401200000048
:104CC8001900000000380040120500001C00000018
:104CD8000038004012000000FFFF00000000000044
:104CE800000000002F55736572732F6A67622F44A6
:104CF8006F63756D656E74732F41726475696E6F3D
:104D08002F68617264776172652F73746D33322F07
:104D180041726475696E6F5F436F72655F53544D7E
:104D280033322F76617269616E74732F47656E65D1
:104D38007269635F4630343243782F7661726961F5
:104D48006E742E63707000001900180017001600AA
:104D58001500140013000F000C000B000A000900D6
:104D680008001F001E001D001C002D002E002F0033
:104D7800000001000200030004000500060007000F
:104D8800100011001A001B0012000D000E002F5514
:104D9800736572732F6A67622F446F63756D656EF2
:104DA80074732F41726475696E6F2F6861726477CE
:104DB8006172652F73746D33322F41726475696E39
:104DC8006F5F436F72655F53544D33322F636F7259
:104DD80065732F61726475696E6F2F776972696E7A
:104DE800675F6469676974616C2E63002F5573652A
:104DF80072732F6A67622F446F63756D656E747383
:104E08002F41726475696E6F2F6861726477617281
:104E1800652F73746D33322F41726475696E6F5FDD
:104E2800436F72655F53544D33322F636F726573EE
:104E38002F61726475696E6F2F4861726477617251
:104E48006554696D65722E63707000000000000083
:104E5800000000000000000000000000000000004A
:104E6800000000000000000000000000000000003A
:104E7800000000000000000000000000000000002A
:104E8800000000000000000000000000000000001A
:104E9800000000000000000000000000000000000A
:0C4EA800000000000000000000000000FE
:104EB4004F44000815020008D10900080510000835
:044EC400893E00081B
:084EC800ED0100082D3F000878
:104ED000D80300200100000004000000000000488A
:104EE00000040048000800480014004800127A003E
:104EF0002400002000000000744E0008944E0008BA
:104F0000544E0008000000000000000000000000F7
:104F10000000000000000000000000000000000091
:104F20000000000000000000000000000000000081
:104F30000000000000000000000000000000000071
:104F40000000000000000000000000000000000061
:044F5000000000005D
:0400000508003FE5CB
:00000001FF
